:100000006F10102313000000130000001300000005
:100010001300000013000000130000001300000094
:100020001300000013000000130000001300000084
:08003000130000007300100032
:1000380000000000000000007219000074190000A0
:100048000000000076190000000000000000000019
:10005800781900007A190000000000000000000074
:100068007C190000000000007E190000000000005C
:100078008019000082190000841900008619000008
:10008800881900008A1900008C1900008E190000D8
:1000980090190000921900009419000096190000A8
:1000A800981900009A1900009C1900009E19000078
:1000B800A0190000A2190000A4190000A619000048
:1000C800A8190000AA190000AC190000AE19000018
:1000D800B0190000B2190000B4190000B6190000E8
:1000E800B8190000BA190000BC190000BE190000B8
:1000F800C0190000C2190000C4190000C619000088
:10010800C8190000CA190000CC190000CE19000057
:10011800D0190000D2190000D4190000D619000027
:10012800D8190000DA190000DC190000DE190000F7
:10013800E0190000E2190000E4190000E6190000C7
:10014800E8190000EA190000EC190000EE19000097
:10015800F0190000F2190000F4190000F619000067
:10016800F8190000FA190000FC190000FE19000037
:10017800001A0000021A0000041A0000061A000003
:10018800081A00000A1A00000C1A00000E1A0000D3
:10019800101A0000121A0000141A0000161A0000A3
:1001A800181A00001A1A00001C1A00001E1A000073
:1001B800201A0000221A0000241A0000261A000043
:1001C800281A00002A1A00002C1A00002E1A000013
:1001D8000000000000000000000000000000000017
:1001E8000000000000000000000000000000000007
:0801F8000000000000000000FF
:10020000397122CC26CA06CE32D436D63AD83EDA56
:1002100042DC46DE2A84AE8401C51C4D91E35D2A92
:100220000C4434102686228536C6EF001013F240A7
:100230006244D244216182805D71BEC222D42A848C
:1002400003A5C18006D62EDA32DC36DEBAC0C2C4BF
:10025000C6C611C51C4D81E72AC6AD2A32450C45DC
:100260005418228636CEEF00500FB25022546161EE
:100270008280397122DC2A842E8526DA06DEAE845D
:10028000612089679387C7FA3ED485473ED61C1004
:100290002AD23ECA0505894726D02ACE3ECC19E08F
:1002A0001C4402901C4C85EB22852D221C4C0C44D6
:1002B0008DC78967938707F16396F5024C40500814
:1002C00022852524A94711C1FD57F2506254D2540A
:1002D0003E85216182800C44E9BF22852EC6DD283F
:1002E000B245C1BF8967938707EF6394F5000C445B
:1002F000F9B78967938707EDE393F5FC4C44C1B7E1
:10030000AA8503A5C180B5B7AA8703C707008507DB
:100310006DFF3385A7407D158280014582804111A4
:1003200022C406C62A842316B5002317C50023203D
:100330000500232205002324050023220506232887
:100340000500232A0500232C0500214681451305BD
:10035000C505B52B8567938787165CD0856793871E
:10036000C7191CD485679387A71E5CD485679387BC
:100370000722B24000D01CD822444101828085650A
:100380009385855769A101458280411126C2930753
:1003900080069384F5FFB384F4024AC02E8922C4F8
:1003A00006C693854407E92B2A8419C92320050032
:1003B00023222501310508C4138684068145012BBB
:1003C000B24022852244924402494101828003A521
:1003D000018175B71C4DB9EF411122C406C69307C0
:1003E000E0371CD583A701812324050423260504B7
:1003F000232805042A846314F50085471CCD228533
:100400001D2848C02285052808C422852D2048C4FF
:10041000484001469145213708440546A545013726
:1004200048440946C945E53D8547B2401CCC2244B5
:10043000410182808280411126C283A401814AC089
:1004400006C69C4C22C42A8999E326856137938489
:1004500084048044DC40FD1763D607009C40B1CF84
:100460008440C5BF0317C40031E7C1778507232245
:1004700004062320040023220400232404005CC477
:1004800023280400232A0400232C0400214681454C
:100490001305C4052D29232A0402232C0402232436
:1004A000040423260404B2402285224492440249D3
:1004B000410182801304840679BF91454A85F13554
:1004C00088C02A8451FDB1472320F900E9BF82800A
:1004D00082808280828003A5C1809305A031F9A427
:1004E00003A5C18093056038D1A41C4699E301455A
:1004F000828083D7C500397122DC4ED656D206DE03
:1005000026DA4AD852D45AD05ECE62CC66CA6AC8BD
:100510006EC6A18BAA892E84B28AD1C39C49C1C35D
:100520008317C40003AA0A0013F7270069EB858B21
:1005300063820714814B0145014B0149630D09207A
:10054000630305225E8C637379014A8C08401C4862
:100550000444544863F5A722B69463D28423DA8511
:10056000268699261C40A2854E85A6971CC0EF10B2
:10057000A000631A050EB38B9B40054563970B00E3
:10058000A2854E85EF00507F79ED83A78A00269BD8
:1005900033099940858F23A4FA00CDF389A0A28561
:1005A0004E85EF00B0572DDD7D551DA803290A00AB
:1005B00083244A00210A1C540C50EDD8A68663738C
:1005C0009B00DA864A864E858297635EA00883A7E1
:1005D0008A002A99898C898F23A4FA00E9FF0145B2
:1005E000F2506254D2544259B259225A925A025B82
:1005F000F24B624CD24C424DB24D21618280370B9E
:10060000008001498144134B0BC075B7032B0A00CE
:1006100003294A00210A8317C4000840032D8400DF
:10062000E30609FE13F7072061CF6363A90913F7F7
:1006300007483DCF44480C48B3049C02B30DB54075
:1006400013871D004A97B3C4940363F3E400BA848C
:1006500093F70740D9C7A6854E851D262A8D05E547
:10066000B14723A0F9008357C40093E7070423167A
:10067000F4001DBFB70B0080014B014993CBFBFF7A
:100680000D4C894C49BF0C486E8621248357C40009
:1006900093F7F7B793E707082316F4002328A4017C
:1006A00044C86E9DB384B4412320A40104C44A8D80
:1006B000CA846373A9014A8D08406A86DA85ED22EF
:1006C0001C44B387A7411CC41C40EA971CC083A7E5
:1006D0008A00269B33099940858F23A4FA0085FF61
:1006E000FDBD26864E85952E2A8D4DF90C484E85EA
:1006F000FD228357C40093F7F7F72316F4008DB754
:100700001C4863E5A70054486376D902EA84637302
:10071000A901CA842686DA85412A1C441840858F9F
:1007200026971CC418C0C5F7A2854E85EF00D0647B
:1007300059DD15BFCA8763F32B01DE87B3C7D70224
:1007400018540C505A864E85B386D7020297AA8455
:10075000E34FA0F609BF03294A00D287210AE30C20
:1007600009FE03AB07004A86A9455A853122930B3F
:100770001900E30905DC0505B30B6541E1B3634BE3
:10078000DC001C540C505A864E858297AA84E344A0
:10079000A0DED1BD6286DA85012A1C44E284B387DB
:1007A00087411CC41C40E2971CC0F1B3011122CC4C
:1007B0004AC84EC656C25AC006CE26CA52C4AE89D0
:1007C000130485040149854A7D5B0444032A4400DF
:1007D0007D1A635F0A0000406DF8F2406244D24423
:1007E000B249224A924A024B4A85424905618280B7
:1007F00083D7C40063FAFA008397E4006386670135
:10080000268582993369A90093848406D1B77971CA
:1008100022D44AD04ECE52CC5AC85EC606D626D274
:1008200056CA2A892E8A130485048149054BFD5B2B
:100830000444832A4400FD1A63D00A0200406DF884
:10084000B250225492540259624AD24A424BB24B9D
:100850004E85F2494561828083D7C400637BFB00EB
:100860008397E40063877701A6854A85029AB3E9F6
:10087000A90093848406C1B793F5F50F2A966314F3
:10088000C5000145828083470500E38DB7FE05055D
:10089000FDB72A8309CA83830500230073007D16F0
:1008A000050385056DFA828015C22A838546636734
:1008B000B500FD561307F6FF3A93BA9583830500FA
:1008C000230073007D163693B6956DFA82802A83D5
:1008D00011C62300B3007D16050365FE8280C5C1E5
:1008E00083A7C5FF011122CC06CE1384C5FF63D3B5
:1008F00007003E942AC6EF00306283A7018232458A
:1009000091EB2322040023A081826244F24005611E
:100910006F00B060637DF4001040B306C4006396BE
:10092000D7009443DC43B29614C05CC0E9BF3E8755
:10093000DC4399C3E37DF4FE14433306D700631F01
:1009400086001040B29614C33306D700E39FC7FA5F
:100950009043DC43B29614C35CC345BF6375C400C7
:10096000B1471CC15DB71040B306C4006396D70001
:100970009443DC43B29614C05CC040C379B7828014
:10098000011126CA93843500F1984AC806CE22CCBC
:100990004EC6A104B1472A8963F3F404B14463E26B
:1009A000B4044A85EF00505703A701823A8429E432
:1009B00083A7C18199E781454A85EF00207823AE5E
:1009C000A180A6854A85EF006077FD59631B350736
:1009D000B1472320F9004A85EF00305431A0E3D01D
:1009E00004FCB1472320F9000145F2406244D2449F
:1009F0004249B249056182801C40858F63C007046B
:100A00002D466376F6001CC03E9404C031A05C40C5
:100A10006314870223A0F1824A85EF00105013056A
:100A2000B4009307440061993307F540E30FF5FAEA
:100A30003A94898F1CC055BF5CC3F9BF22874040E0
:100A4000BDB7130435007198E30185FCB305A440DC
:100A50004A85ED25E31B35FBA5BF011122CC06CE4F
:100A600026CA4AC84EC652C4328491E96244F24052
:100A7000D2444249B249224AB285056111B701EE1A
:100A8000B93D8144F24062444249B249224A268536
:100A9000D244056182802A8AAE84EF0030482A89D8
:100AA0006366850093571500E3EE87FCA2855285A7
:100AB000C13DAA8979D52286637389004A86A685B5
:100AC0004E85C13BA6855285193DCE8465BF1C4627
:100AD000FD171CC663D90700184E63C5E700A94778
:100AE0006393F50089A71C422E851387170018C24F
:100AF0002380B7008280011122CC26CA4AC84EC684
:100B000052C406CE2A89AE893284B304D6007D5AF7
:100B100063149400014509A8834504004E864A8564
:100B20007D370504E31645FFF2406244D244424952
:100B3000B249224A056182801C46411122C406C680
:100B4000328491CB5D3223240400B240232204007E
:100B50002244410182800145CDBF1971A2DCA6DA91
:100B6000CAD8CED686DED2D4D6D2DAD0DECEE2CC89
:100B7000E6CAEAC8AA89AE843289368409C51C4D02
:100B800099E3EFF03F858967938707F1639CF40C45
:100B900083A4490083D7C400A18B6385070E9C48BA
:100BA000F5C393070002A300F1029307000302CEEE
:100BB0002301F10222C2130B5002096A854B896A94
:100BC000096C856C4A848347040099C36390670F5E
:100BD000330D2441630D2401EA864A86A6854E859D
:100BE000193FFD57630AF51AF247EA973ECE83474D
:100BF00004006383071AFD571309140002C402CAD4
:100C00003EC602C8A3050104834509001546130525
:100C10000AFB9D31A2471304190059E913F7070194
:100C200009C713070002A305E10413F7870009C7EA
:100C30001307B002A305E104834609001307A002CD
:100C40006381E608D2474A84814625462945034701
:100C5000040093051400130707FD637AE60AB5CA7A
:100C60003ECA85A88967938707EF6395F40083A43C
:100C700089000DB78967938707EDE39DF4F083A49E
:100C8000C90009BFA6854E85512DE30C05F07D55A1
:100C9000F6506654D6544659B659265A965A065BAB
:100CA000F64B664CD64C464D09618280050421BF47
:100CB00013070AFB198D3395AB00C98F3EC42289F7
:100CC000A1B7124793064700184336C2634A07028A
:100CD0003ACA034704009307E002631FF70403477F
:100CE00014009307A002631AF702924709041387BE
:100CF00047009C433AC263D30700FD573EC62DA868
:100D00003307E04093E727003ACA3EC4D9B7B38718
:100D1000A7022E848546BA971DBF050402C68146E8
:100D2000814725462945034704009305140013070E
:100D300007FD637DE604F9F2834504000D46138543
:100D40008AFB1D3E01CD93878AFB1D8DA2471307A9
:100D500000043317A700D98F05043EC4834504005F
:100D600019461305CCFB2300B1023936580093868F
:100D70006CAF26862C004E85B122FD571309140056
:100D8000630CF500F247AA973ECE2DBDB387A702AC
:100D90002E848546BA9741BF83D7C40093F70704D2
:100DA000E39707EE7245EDB5B2862E86AA8503A5B8
:100DB000C18065B3797156CA9C49BA8A984522D4D4
:100DC0004AD04ECE52CC06D626D25AC85EC6AA8982
:100DD0002E843289368A63D3E700BA872320F9004C
:100DE0000347340401C785072320F9001C4093F70B
:100DF000070291C78327090089072320F9000440CF
:100E0000998891E8130B9401FD5B5C44032709006A
:100E1000998F63CCF40483473404B336F0001C404C
:100E200093F70702A5EB13063404D2854E85829A08
:100E3000FD576303F5041C4011478144998B639966
:100E4000E7004444832709009D8C63D30400814458
:100E50001C4418486354F700998FBE9401496904F3
:100E60007D5B63982405014509A885465A86D2858D
:100E70004E85829A631E75017D55B250225492545C
:100E80000259F249624AD24A424BB24B45618280D2
:100E90008504A5BF3307D40013060003A301C704CC
:100EA0000347540493871600A2978906A381E70499
:100EB0009DBF85462286D2854E85829AE30E65FBCC
:100EC000050945B7797122D426D24AD04ECE06D62E
:100ED00052CC56CA5AC883C8850193078007AA8492
:100EE0002E843289B68963EE170193072006938614
:100EF000350463ED17016388081C9307800563823E
:100F0000F816930A24042301140505A89387D8F939
:100F100093F7F70F5546E366F6FE09668A07130650
:100F200006F3B2979C4382871C43938A25049386D9
:100F300047009C4314C32381F50485474DAA904183
:100F40001C43137506089385470031C19C430CC3AD
:100F500009674C40130847FC63DF07121307D002F0
:100F6000A301E4040CC463DC0502B307F040294785
:100F7000B68A33F6E702FD1A42960346060023803E
:100F8000CA003E86B3D7E702E375E6FE85A09C4320
:100F9000137506040CC34DDDC207C18755BF6D9A9A
:100FA00010C0E1B790411C431375060893854700B4
:100FB00001C50CC39C4339A0137606040CC37DDA2B
:100FC00083D7070009681307F006130848FC6392EB
:100FD000E80C2147A3010404504010C4E34A06F87A
:100FE0000C40ED990CC0C9F7B68A59F2A147631EAF
:100FF000F7001C40858B91CB58401C4863C7E70025
:1010000093070003A38FFAFEFD1AB386564114C856
:101010004E87CA867000A2852685693B7D5A631C6F
:10102000450D7D55B250225492540259F249624AFC
:10103000D24A424B456182809C4193E707029CC1A2
:10104000096893088007130888FD1040A30214055F
:101050001C43137506089385470001C90CC39C43C4
:1010600019A80968130848FCCDB7137506040CC30A
:101070007DD583D707001377160001C713660602D4
:1010800010C099C34147B9B718401377F7FD18C08E
:10109000D5BF294781B7130847FC294735BF904181
:1010A0001C43CC49137806081385470063060800E3
:1010B00008C39C438CC301A808C3137606049C4351
:1010C00075DA2390B70023280400B68A91B71C4331
:1010D000D04181459386470014C383AA07005685F3
:1010E000EFF08FF901C53305554148C05C401CC87D
:1010F000A301040431BF14485686CA852685829907
:10110000E30145F31C40898B8DE7B2474844E35B1C
:10111000F5F03E8501BF85465686CA8526858299AB
:10112000E30165F1050A5C443247998FE345FAFE15
:10113000E9BF014A930A94017D5BF5B7411122C4CE
:1011400026C22A842E8506C623A20182EF00F0550E
:10115000FD576316F50083A7418291C31CC0B240BE
:101160002244924441018280411122C42E848395FD
:10117000E50006C6752B634905007C48AA977CC824
:10118000B2402244410182808357C4007D777D179D
:10119000F98F2316F400EDB70145828083D7C5008F
:1011A000011122CC26CA4AC84EC606CE93F70710B4
:1011B000AA842E843289B68991C78395E500894631
:1011C00001463D218357C4007D777D17F98F831534
:1011D000E4002316F4006244F240CE864A86B24907
:1011E00042492685D244056111A2411122C42E84B0
:1011F0008395E50006C6ED2E7D578357C400631B1B
:10120000E5007D777D17F98F2316F400B240224464
:10121000410182800567D98F2316F40068C8FDB7A5
:101220008395E500C5AA011122CC26CA4AC806CE7C
:101230004EC6AA842E89328409C51C4D99E3EFF06D
:101240006F998967938707F16318F402C0401C4CBB
:101250001CC48357C400A18B99C31C4885EFA28589
:1012600026856D2805C97D59F2406244D244B249B1
:101270004A854249056182808967938707EF631435
:10128000F4008044E9B78967938707EDE311F4FC24
:10129000C04475BF1C4808409379F90F1379F90FC2
:1012A0001D8D5C486346F500A2852685F12445FD29
:1012B0001C440505FD171CC41C401387170018C0EB
:1012C000238037015C486389A7008357C400858B5E
:1012D000C1DFA947E31AF9F8A2852685712C49D503
:1012E00059B72E86AA8503A5C18035BF411122C4F6
:1012F00026C22A842E85B285368606C623A201829E
:10130000EF00F035FD576316F50083A7418291C3C6
:101310001CC0B2402244924441018280411126C245
:1013200083A4C18022C44AC006C62A892E8491C4DF
:101330009C4C81E72685EFF0EF898967938707F159
:101340006314F402C0408317C40013F7870025EB31
:1013500013F7070105EB25472320E90093E707046E
:101360002316F4007D5551A88967938707EF63140E
:10137000F4008044C9BF8967938707EDE315F4FC47
:10138000C044D1B7918B95C74C5891C99307440479
:101390006385F5004A85EFF08FD4232A0402835732
:1013A000C4002322040093F7B7FD2316F4001C4861
:1013B0001CC08357C40093E787002316F4001C4821
:1013C00081EF8357C4001307002093F70728638534
:1013D000E700A2854A854D248317C40013F7170040
:1013E0001DC35848232404003307E04018CC184894
:1013F000014501E713F7070835F3B2402244924450
:1014000002494101828013F72700814611E35448C5
:1014100014C4F1BF411122C426C22A842E8506C6F7
:1014200023A20182412EFD576316F50083A7418256
:1014300091C31CC0B24022449244410182808397F0
:10144000C500011122CC26CA06CE4AC84EC613F7E3
:101450008700AA842E8471E7D8416345E000B84133
:101460006359E008585451C7B18303A90400858B20
:1014700023A004000C50A1CF70488357C400918B67
:1014800099C75C401D8E5C5899C33C401D8E5C54CE
:101490000C50814626858297FD57630EF5041C4843
:1014A0000567232204001CC08357C400F98F91C331
:1014B00068C84C5823A024018DCD9307440463854C
:1014C000F5002685EFF0AFC1232A04021DA00146D6
:1014D000854626850297FD572A86E310F5FA9C403B
:1014E000C9DF75476385E70059476395E70623A081
:1014F00024010145BDA098408317C40001CFF546E3
:101500006305D700D9466319D7041C482322040079
:101510001CC045B71848B1832322040018C0858B2E
:1015200079B783A90501E38609FC03A905008D8B22
:1015300023A0350133093941014791E3D84918C443
:10154000E35920FB1C540C50CA864E862685829790
:101550006340A0028317C40093E707042316F40036
:101560007D55F2406244D2444249B24905618280CD
:10157000AA993309A940E9B79C49A9CF011122CC06
:1015800006CE2A8419C51C4D89E72EC6EFE09FE4DC
:10159000B2458967938707F1639BF5004C408397B9
:1015A000C50085C722856244F240056149BD89674F
:1015B000938707EF6394F5000C44D5B78967938749
:1015C00007EDE39EF5FC4C44D9BFF240624401456F
:1015D0000561828001458280AA8501E903A5018118
:1015E0008565938585576FF08FA203A5C18069B784
:1015F000411122C426C22A842E85B285368606C6AB
:1016000023A20182D12AFD576316F50083A74182E8
:1016100091C31CC0B240224492444101828059715E
:10162000A2D42E848395E500A6D2CAD086D6B284F1
:10163000368963D305028357C40093F707088DEBFF
:1016400013070040B65026542320F90098C00659CD
:10165000965401456561828030001122E34D05FCFE
:101660003247BD67F98F7977BA9793B71700C9BF2B
:10167000814713070004F9B783D7C500797122D4D5
:1016800006D626D24AD04ECE898B2E8491CF930790
:1016900074041CC01CC885475CC8B25022549254C4
:1016A0000259F2494561828074003000AA84853F66
:1016B000A2492A892685CE85EFF08FAC01ED8317EC
:1016C000C40013F7072071FBF19B93E72700231653
:1016D000F40075BF9307E0379CD48357C40008C05B
:1016E00008C893E707082316F400B247232A3401F9
:1016F00089CF8315E4002685492801C98357C40092
:10170000F19B93E717002316F4008357C40033E5D9
:1017100027012316A40051B78280828083A7C5FFCA
:101720001385C7FF63D50700AA959C413E9582802B
:10173000411122C426C22A842E85B285368606C669
:1017400023A201824520FD576316F50083A741823D
:1017500091C31CC0B2402244924441018280411195
:1017600022C426C22A842E85B28506C623A20182FF
:101770008128FD576316F50083A7418291C31CC0E1
:10178000B2402244924441018280411122C426C2C7
:101790002A842E8506C623A201820D28FD576316D2
:1017A000F50083A7418291C31CC0B24022449244F9
:1017B000410182801307800523A2E1827D5582804A
:1017C0001307800523A2E1827D55828013078005DF
:1017D00023A2E182014582801307800523A2E182D2
:1017E0007D5582801307800523A2E1827D5582808A
:1017F00001118545114506CE02C202C402C67923F5
:1018000085472312F10037150140C1473EC64C0001
:101810008D47130505803EC44524F2400561828052
:101820004111094506C622C426C2412351237165D0
:1018300013050520D12BB707002083A507070965ED
:10184000130585F8EFE05F9F0965130585F9EFE063
:101850003FAB37140140693F8144130404801305F2
:10186000A00FA52B99E405468544854522852126B0
:10187000FDB701468144D5BFB71702409843B7066C
:10188000FFF841111367170098C3D84337060200C9
:10189000758FD8C39843B706F7FEFD16758F98C3AA
:1018A0009843B706FCFFFD16758F98C3D843B7065B
:1018B00081FFFD16758FD8C39843B70600ECFD165F
:1018C000758F98C33707FF0098C723A6070202C485
:1018D00002C69843C166558F98C3B7160240056784
:1018E0009C42F18F3EC6A24785073EC4B24781E7BE
:1018F000A247E397E7FEB71702409C433707020071
:10190000F98FB5C785473EC632478547631FF70441
:10191000B7170240D843B706C1FFFD16D8C3D84356
:10192000D8C3D84313670740D8C3D843758FD8C3EB
:10193000D843B7061D00558FD8C39843B70600019A
:10194000558F98C3B70600029843758F75DFD8434B
:10195000B7160240719BD8C3D84313672700D8C37A
:101960002147DC42B18BE39EE7FE4101828002C643
:1019700061BF01A001A001A001A001A001A001A0E0
:1019800001A001A001A001A001A001A001A001A04F
:1019900001A001A001A001A001A001A001A001A03F
:1019A00001A001A001A001A001A001A001A001A02F
:1019B00001A001A001A001A001A001A001A001A01F
:1019C00001A001A001A001A001A001A001A001A00F
:1019D00001A001A001A001A001A001A001A001A0FF
:1019E00001A001A001A001A001A001A001A001A0EF
:1019F00001A001A001A001A001A001A001A001A0DF
:101A000001A001A001A001A001A001A001A001A0CE
:101A100001A001A001A001A001A001A001A001A0BE
:101A200001A001A001A001A001A001A001A001A0AE
:101A300097F1FF1F938101E4176100201301815C7E
:101A4000170500001305C55A97E5FF1F9385855BB1
:101A50001386418163FAC5008322050023A0550047
:101A600011059105E3EAC5FE1385418193858182C5
:101A70006377B500232005001105E36DB5FEFD4237
:101A8000739002BCED427390428099629382820807
:101A900073A0023097E2FFFF9382425A93E2320032
:101AA00073905230EFF05FDD97020000938282D78F
:101AB00073901234730020309C4513F7070113F81C
:101AC000F70001C7D8413368E80083D5050013F754
:101AD000F50F31C318418146054E930E80023D4FEC
:101AE000930F800421433316DE00B3F8C500631062
:101AF0001603639AD70750C913962600B318CF0070
:101B000093C8F8FF33F7E8003316C800518F8506F5
:101B1000E39B66FC18C11307F00F6375B7045441CB
:101B20000146054E930E8002130F800421431307D4
:101B300086003317EE00B3F8E500631117036398CE
:101B4000D70358C9931826003D4733171701134789
:101B5000F7FFF98EB3181801B3E6D8000506E318AD
:101B600066FC54C18280E399F7F910C971B7E39B11
:101B7000E7FD18C9C1BF19C20CC982804CC9828057
:101B800083560501F577FD17FD8E83D765007971C2
:101B900022D426D206D6D58F03D7C5002318F50048
:101BA0008356C500FD779387379FFD8E83D7450009
:101BB0002A84AE84D58F83D68500D58F83D6A500A1
:101BC000D58F2316F50083574501C207C18393F7CC
:101BD000F7CFD98F231AF50068006520B747014079
:101BE00093870780631DF404E2478356C40065476A
:101BF000B387E702C206C186984063D4060406078D
:101C0000930640060356C400B3D7E7024206418656
:101C100033D7D702B3F7D7021207635606028E07EF
:101C200093872703B3D7D7029D8BD98FC207C18370
:101C3000B2502314F4002254925445618280D2475A
:101C40006DB70A0775BF920793872703B3D7D702EB
:101C5000BD8BE1BF8357C50091C50967D98F231696
:101C6000F500828079777D17F98FD5BF93F5F51F41
:101C70002312B5008280035505006D8D3335A00019
:101C80008280371702405C43A146B18B6387D70639
:101C9000B7177A00938707201CC1371602405C42B1
:101CA00037070020130707009183BD8BBA9783C6BF
:101CB00007001C41B3D7D7005CC15442A1829D8A62
:101CC000BA9683C60600B3D6D70014C55442AD8277
:101CD0009D8A369703470700B7060020938646077C
:101CE000B3D7E7005CC5584239830D8B369703475D
:101CF0000700B3D7E7021CC982805C4354434167A5
:101D0000C983F98E37F7FF1F0326C7701167BD8B94
:101D1000718F89070DE345466393C700C947A9E65C
:101D2000B746024083A60680C18AB1C6B7167A00BC
:101D300093860620A9A00947638DE7003D47638C81
:101D4000E7004147638CE7004547638CE7000147A4
:101D5000F9B7C947EDBF0547B547D1B70147BD47FB
:101D60007DBF0147C14765BFB7160240D442370661
:101D70000200F18EC5DEB7163D0093860690B3874C
:101D8000D7028546E31AD7F0858339B799C5371747
:101D900002401C4FC98F1CCF8280B7170240984F5A
:101DA0001345F5FF798D88CF828023AAA180828098
:101DB000B707002083A7070737177A001307072004
:101DC000B3D7E70293F7F70F238DF1801307803E17
:101DD000B387E702239CF1808280B7F700E0D84305
:101DE0008146799BD8C303D781813306A70290CB64
:101DF000D4CB98431367170398C3D843058B75DF7B
:101E00009843799B98C38280797122D42A84116582
:101E10008545110506D69D3F930700202312F1004A
:101E2000371501408D473EC44C00E147130505803E
:101E30003EC6593122C837440140B70708000C0894
:101E4000130504803ECC02CA231E0100153B130576
:101E5000048085450135B2502254456182800111CC
:101E60004AC83749014022CC26CA4EC606CEAE89A2
:101E7000328481441309098063CA8400F2402285B8
:101E80006244D2444249B24905618280930500040C
:101E90004A85D53365DDB3879900838507004A8578
:101EA0008504C205C181D933C1BFAA8703A581803A
:101EB00013878182AA9763EBE70037870020130717
:101EC00007806365F70023A4F18082807D558280BE
:101ED0000000000000000000000000000000000002
:101EE00000000000000000000000000000000000F2
:101EF00000000000000000000000000000000000E2
:101F000000000000000000000000000000000000D1
:101F100000000000000000000000000000000000C1
:101F200000000000000000000000000000000000B1
:101F3000280F00003E0F0000020F0000020F0000FB
:101F4000020F0000020F00003E0F0000020F000011
:101F5000020F0000020F0000020F00009E100000A0
:101F6000A40F000038100000020F0000020F000054
:101F7000CE100000020F0000A40F0000020F0000AE
:101F8000020F00004010000053797374656D436CBC
:101F90006B3A25640D0A00004750494F20546F6783
:101FA000676C6520544553540D0000000A00000082
:101FB000232D302B20000000686C4C0065666745BF
:101FC00046470000303132333435363738394142F4
:101FD0004344454600000000303132333435363753
:0C1FE0003839616263646566000000002F
:101FEC0000000000010203040102030406070809B3
:101FFC0000000000101F0000F01E0000D01E0000AA
:10200C0000000000000000000000000000000000C4
:10201C0000000000000000000000000000000000B4
:10202C0000000000000000000000000000000000A4
:10203C000000000000000000000000000000000094
:10204C000000000000000000000000000000000084
:10205C0000A24A0402040608980000201000002088
:04206C001000002040
:00000001FF
